:060000000A128A11FC2F18
:100F00008316031386018701FF30880083120313C1
:100F1000860183120313081E892F0A128A11A8273B
:100F20000A128A11892FF301F4017408803AF20041
:100F30007108803A7202031D9F2F70087302031814
:100F400008000130F3070318F40A0030F407952F66
:100F5000831203130808F500F6017508F7007608F8
:100F6000F800C92F8601F42F0130C72F0230C72F98
:100F70000330C72F0430C72F0530C72F0630C72FC7
:100F80000730C72F0830C72F0930C72F0F30860012
:100F9000F42F7808003A0319CE2FF42F7708103A6F
:100FA0000319B42F013A0319B62F033A0319B82FC6
:100FB000063A0319BA2F013A0319BC2F033A031951
:100FC000BE2F0E3A0319C02F013A0319C22F033A5C
:100FD0000319C42F063A0319C62F013A0319B22F79
:100FE000033A0319C62FF42FE830F0000330F10064
:100FF0000A128A119327080083010A128A11802F8E
:02400E0071FF40
:00000001FF
