:060000000A128A11122809
:10000800FE00030E83120313B0000408B1000A08AF
:10001800B2007F08B3000A128A1193290A128A11C2
:10002800152883133B30840051300A128A11972215
:1000380083010A128A11E22883120313AD002130CA
:10004800A3002308A7000130A007FF302007840081
:100058000A128A1104220A128A11A3002308AE0088
:10006800AE080319DD282E08253A031947282E085B
:10007800A3002D0884002308831380000130A30007
:100088002308AD072728A6014E28C030A30023085F
:10009800A60460280130A007FF30200784000A1258
:1000A8008A1104220A128A11AE00003A0319DD28C7
:1000B800753A03194928272827088400831300085C
:1000C800A800840A0008A9000230A3002308A70793
:1000D800AE01AE0A2E08053A031993282E08A3008C
:1000E8002307013E84000A128A1104220A128A1187
:1000F800A4000A128A1104220A128A11A5002508EE
:100108002902031D892824082802031C932801308A
:10011800A3002308AE072E08053A031D72282E08EF
:10012800A3002308AC00FF30A3002308AC072C0869
:10013800FF3A031927280A30F8000030F9002C0884
:10014800A3002307013E84000A128A1104220A121E
:100158008A11F0000A128A1104220A128A11F10087
:100168002908F301F3072808F201F2070A128A1195
:1001780055210A128A117108FB01FB077008FA0160
:10018800FA070A128A11D0210A128A117808303E19
:1001980083120313A4002408AE002E08A3002D0820
:1001A80084002308831380000130A3002308AD07CF
:1001B80097282D08840083138001080004308316D3
:1001C8000313870030308312031390008316031340
:1001D8000C15831203130C110B178B171014043012
:1001E800970083160313860183120313860183166F
:1001F800031388010A128A1144220A128A118030D4
:100208000A128A1188220A128A110B300A128A11DC
:1002180024220A128A11C0300A128A1188220A126C
:100228008A1183120313B901BA013A08803AFF0010
:1002380080307F02031D222914303902031849290E
:100248008312031339083D3E840083138008031981
:10025800362939083D3E840000080A128A1179229D
:100268000A128A11013083120313B9070318BA0A54
:100278000030BA073A08803AFF0080307F02031D39
:10028800472914303902031C242914300A128A1110
:1002980024220A128A110A128A1161220A128A1168
:1002A8000F29F501F6017108700403198C29F7016B
:1002B800F70AF11B6B2901300310F00DF10DFF3E19
:1002C800031D60290130F4007408F7075D29013027
:1002D8000310F50DF60DFF3E031D6C29710873021E
:1002E800031D782970087202031C81297008F20224
:1002F8007108031CF303F302751401300310F10CA9
:10030800F00CFF3E031D82290130F702031D6B2903
:100318007608F101F1077508F001F00708008B1362
:100328000C1DC2290C118E018F017D30F0000030A8
:10033800F1001608F301F3071508F201F2070A1293
:100348008A1155210A128A117008013E831203137B
:10035800BB0071080318013E003EBC001830AF0016
:100368002F08A0003C08A201A2073B08A101A10791
:100378003D300A128A1120200A128A118B17831223
:1003880003133308FF0032088A0031088400300E56
:100398008300FE0E7E0E0900790878040319FD29F2
:1003A800FD01FD0AF91BE42901300310F80DF90DD0
:1003B800FF3E031DD9290130FC007C08FD07D62922
:1003C80079087B02031DEA2978087A02031CF229BE
:1003D8007808FA027908031CFB03FB0201300310BA
:1003E800F90CF80CFF3E031DF3290130FD02031D33
:1003F800E4297B08F901F9077A08F801F8070800E9
:1004080002308A000408840A820700340134003468
:100418000A34003464340034E834033410342734A4
:1004280050344534523449344F3444343A34203407
:10043800003420346D34733400342534753400347A
:1004480083120313B800380884000A128A110422A0
:100458000A128A11003803190800380884000A12A1
:100468008A1104220A128A110A128A1179220A129E
:100478008A11013083120313B7003708B807272AF7
:1004880038300A128A1188220A128A1108300A1290
:100498008A1188220A128A1101300A128A118822C6
:1004A8000A128A1106300A128A1188220A128A113F
:1004B8000C300A128A118822080083120313B4012F
:1004C800B5013508803AFF0083307F02031D6E2A8C
:1004D800E830340203180800013083120313B4070C
:1004E8000318B50A0030B507652A83120313B6004E
:1004F800861606133608880086170A128A116122A2
:10050800831203138613080083120313B60086129E
:1005180006133608880086170A128A116122831288
:1005280003138613080064008001840A0406031973
:0605380000340406982ABD
:02400E0071FF40
:00000001FF
