:060000000A128A11122809
:10000800FE00030E83120313B0000408B1000A08AF
:10001800B2007F08B3000A128A1155290A128A1100
:10002800152883133B30840053300A128A11A42206
:1000380083010A128A11E22883120313AD002130CA
:10004800A3002308A7000130A007FF302007840081
:100058000A128A1111220A128A11A3002308AE007B
:10006800AE080319DD282E08253A031947282E085B
:10007800A3002D0884002308831380000130A30007
:100088002308AD072728A6014E28C030A30023085F
:10009800A60460280130A007FF30200784000A1258
:1000A8008A1111220A128A11AE00003A0319DD28BA
:1000B800753A03194928272827088400831300085C
:1000C800A800840A0008A9000230A3002308A70793
:1000D800AE01AE0A2E08053A031993282E08A3008C
:1000E8002307013E84000A128A1111220A128A117A
:1000F800A4000A128A1111220A128A11A5002508E1
:100108002902031D892824082802031C932801308A
:10011800A3002308AE072E08053A031D72282E08EF
:10012800A3002308AC00FF30A3002308AC072C0869
:10013800FF3A031927280A30F8000030F9002C0884
:10014800A3002307013E84000A128A1111220A1211
:100158008A11F0000A128A1111220A128A11F1007A
:100168002908F301F3072808F201F2070A128A1195
:100178009F210A128A117108FB01FB077008FA0116
:10018800FA070A128A11DD210A128A117808303E0C
:1001980083120313A4002408AE002E08A3002D0820
:1001A80084002308831380000130A3002308AD07CF
:1001B80097282D08840083138001080004308316D3
:1001C8000313870030308312031390008316031340
:1001D8000C15831203130C110B178B171014043012
:1001E800970083160313860183120313860183166F
:1001F800031388010A128A1151220A128A118030C7
:100208000A128A1195220A128A110B300A128A11CF
:1002180031220A128A11C0300A128A1195220A1252
:100228008A1183120313B901BA013A08803AFF0010
:1002380080307F02031D222914303902031849290E
:100248008312031339083F3E84008313800803197F
:10025800362939083F3E840000080A128A1186228E
:100268000A128A11013083120313B9070318BA0A54
:100278000030BA073A08803AFF0080307F02031D39
:10028800472914303902031C242914300A128A1110
:1002980031220A128A110A128A116E220A128A114E
:1002A8000F298B130C1D8D290C118E018F017D30A8
:1002B800F0000030F1001608F301F3071508F20109
:1002C800F2070A128A119F210A128A117008013E48
:1002D80083120313BD0071080318013E003EBE00DF
:1002E8000A303B063C04031D8D291830AF002F0847
:1002F800A0003E08A201A2073D08A101A1073F30C6
:100308000A128A1120200A128A1183120313BB01D0
:10031800BC018B170130BB070318BC0A0030BC07AF
:100328003308FF0032088A0031088400300E830049
:10033800FE0E7E0E0900F501F6017108700403191E
:10034800D629F701F70AF11BB52901300310F00D82
:10035800F10DFF3E031DAA290130F4007408F707C8
:10036800A72901300310F50DF60DFF3E031DB62930
:1003780071087302031DC22970087202031CCB297D
:100388007008F2027108031CF303F30275140130BC
:100398000310F10CF00CFF3E031DCC290130F702CD
:1003A800031DB5297608F101F1077508F001F0077A
:1003B80008007908780403190A2AFD01FD0AF91BC7
:1003C800F12901300310F80DF90DFF3E031DE62950
:1003D8000130FC007C08FD07E32979087B02031D36
:1003E800F72978087A02031CFF297808FA027908A5
:1003F800031CFB03FB0201300310F90CF80CFF3E51
:10040800031D002A0130FD02031DF1297B08F901B3
:10041800F9077A08F801F807080002308A0004088A
:10042800840A82070034013400340A340034643406
:100438000034E8340334103427345034453452340B
:1004480049344F3444343A342034003420346D3441
:100458007334003425347534003483120313B80020
:10046800380884000A128A1111220A128A110038E7
:1004780003190800380884000A128A1111220A1286
:100488008A110A128A1186220A128A1101308312ED
:100498000313B7003708B807342A38300A128A110C
:1004A80095220A128A1108300A128A1195220A1214
:1004B8008A1101300A128A1195220A128A1106300D
:1004C8000A128A1195220A128A110C300A128A110C
:1004D8009522080083120313B401B5013508803A48
:1004E800FF0083307F02031D7B2AE83034020318A3
:1004F8000800013083120313B4070318B50A00304B
:10050800B507722A83120313B60086160613360837
:10051800880086170A128A116E2283120313861323
:10052800080083120313B6008612061336088800E3
:1005380086170A128A116E22831203138613080083
:1005480064008001840A0406031900340406A52AFD
:02400E0071FF40
:00000001FF
