:060000000A128A11122809
:10000800FE00030EF6000408F7000A08F800831241
:1000180003137F08F9000A128A11FE290A128A11AD
:100028001528F001F101F201F301F401F501831340
:100038004630FD000130FE00B730FF00203084005C
:100048000A128A11292283010A128A112B2874089C
:1000580083120313CA004A073E3E84008313000834
:10006800831603139200720883120313CA00013027
:100078000310CA0DFF3E031D3C280A30CB004B0875
:10008800C60074080A128A1112220A128A11203E26
:10009800831203134A07CC004C088400831300081A
:1000A800CD00840A0008CE000310CE0CCD0C03103E
:1000B800CE0CCD0C4D0895007208CA000130031013
:1000C800CA0DFF3E031D63280A30CB004B08C6004B
:1000D80074080A128A1112220A128A11203E831207
:1000E80003134A07CC004C08840083130008033923
:1000F800CD0003300310CD0DFF3E031D7E280310F5
:100108004D0D0C3E970006309200443083160313C1
:1001180081008B170B170B168B160B118701FF30FD
:10012800880086018312031307110A128A116E21AF
:100138000A128A1183120313081C0D290A128A1144
:10014800DD210A128A110A128A1147220A128A111B
:10015800740883120313CA004A073E3E84008313BF
:100168000008831603139200720883120313CA004F
:1001780001300310CA0DFF3E031DBD280A30CB0015
:100188004B08C60074080A128A1112220A128A1130
:10019800203E831203134A07CC004C0884008313C3
:1001A8000008CD00840A0008CE000310CE0CCD0C48
:1001B8000310CE0CCD0C4D0895007208CA00013012
:1001C8000310CA0DFF3E031DE4280A30CB004B087C
:1001D800C60074080A128A1112220A128A11203ED5
:1001E800831203134A07CC004C08840083130008C9
:1001F8000339CD0003300310CD0DFF3E031DFF284A
:1002080003104D0D0C3E97000A128A116E210A1236
:100218008A1183120313881C9E280A128A11DD2171
:100228000A128A110A128A1136220A128A117408CD
:1002380083120313CA004A073E3E84008313000852
:10024800831603139200720883120313CA00013045
:100258000310CA0DFF3E031D2C290A30CB004B08A2
:10026800C60074080A128A1112220A128A11203E44
:10027800831203134A07CC004C0884008313000838
:10028800033995007208CA0001300310CA0DFF3EF9
:10029800031D49290A30CB004B08C60074080A120E
:1002A8008A1112220A128A11203E831203134A0766
:1002B800CC004C08840083130008CD00840A000891
:1002C800CE000310CE0CCD0C0310CE0CCD0C4D0877
:1002D80097009928831203138601C601C701C80134
:1002E800C9017F2901307B2902307B290330C600F0
:1002F8000030C7009D297508003A031984299D29F3
:100308007408003A03197629013A03197829033A3F
:1003180003197A299D299D2904309929083099299A
:100328000C309929103099291430C8000030C900C0
:10033800B3297308003A0319A229B3297208003AAD
:1003480003199029013A03199229033A03199429A8
:10035800013A03199629073A03199829B329480835
:1003680046078600080053340034D0340034A134E2
:1003780001347134023418340334323400347D3497
:100388000034FA34003477340134DB34013419345E
:1003980000343F3400347D340034BC340034EE344F
:1003A8000034CF3400347C3400343E34003401341B
:1003B800003483120313C601C701831203134708CD
:1003C800803AFF0080307F02031DEC29623046022C
:1003D80003180800013070067104031DE129F001BB
:1003E800F101013083120313C6070318C70A00304E
:1003F800C707E1298B130B1D062A0B110130F000EA
:100408000030F1008B177908FF0078088A00770818
:100418008400760E8300FE0E7E0E090083120313FD
:10042800C900C801491C1C2A4608C7004708C80754
:100438000310C60D0310C90CC908031D162A480865
:1004480008007E088A007F08820025220A128A1185
:100458008000840A04087D0603190034FF0A031982
:10046800FE0A292A003075020230031974020318A3
:10047800442A0130F4070318F50A0030F50708008C
:10048800F401F50108000030730204300319720208
:100498000318552A0130F2070318F30A0030F3074E
:0804A8000800F201F301080055
:02400E0071FF40
:00000001FF
