:060000000A128A11FC2F18
:100F3E000A128A11AD2783160313111408000A1220
:100F4E008A11AD2783160313111508008316031398
:100F5E0011081F3903191419AD2F0800F0000A12D9
:100F6E008A11AD27700883120313930008008316AD
:100F7E000313871507162830831203139400831664
:100F8E00031391019401093093000800FF3083167A
:100F9E00031388000A128A11BE270A128A110A1236
:100FAE008A119F270A128A1110300A128A11B52748
:100FBE000A128A118312031308080A128A11B5271E
:100FCE000A128A110A128A11A6270A128A110230EF
:100FDE00F3000430F200BA30F100F10BF42FF20BF3
:100FEE00F42FF30BF42F0000D62F83010A128A116F
:020FFE00CD2FF5
:02400E0071FF40
:00000001FF
