:060000000A128A11FC2F18
:100F5E00F301F4017408803AF2007108803A7202CB
:100F6E00031DBB2F70087302031808000130F3072E
:100F7E000318F40A0030F407B12F07308316031359
:100F8E009F008601F62FF501F6017608803AFF00E4
:100F9E0080307F02031DD52F033075020318F62F04
:100FAE008312031306141030F0002730F1000A12DA
:100FBE008A11AF270A128A118312031306101030FA
:100FCE00F0002730F1000A128A11AF270A128A1197
:100FDE000130F5070318F60A0030F607CC2F8312FE
:100FEE0003130518CA2F0610F62F83010A128A1151
:020FFE00C42FFE
:02400E0071FF40
:00000001FF
