:060000000A128A11122809
:10000800FE00030EF0000408F1000A08F200831253
:1000180003137F08F3000A128A11F9290A128A11B8
:100028001528F601F701F801F901D101D20183136E
:100038004630FD000130FE00B630FF00203084005D
:100048000A128A11242283010A128A112B288B177B
:1000580043308316031381008B160B11033088007D
:100068008701860183120313860107117808CC00E3
:100078004C073E3E84008313000883160313920046
:10008800760883120313CC0001300310CC0DFF3E19
:10009800031D49280A30CD004D08F40078080A12DB
:1000A8008A110D220A128A11203E831203134C076B
:1000B800CE004E08840083130008CF00840A00088D
:1000C800D0000310D00CCF0C0310D00CCF0C4F086D
:1000D80095007608CC0001300310CC0DFF3E031DBF
:1000E80070280A30CD004D08F40078080A128A11E9
:1000F8000D220A128A11203E831203134C07CE00E8
:100108004E088400831300080339CF00033003101E
:10011800CF0DFF3E031D8B2803104F0D0C3E97009B
:10012800063092000A128A116B210A128A11831270
:100138000313081C0A290A128A11DC210A128A11DF
:100148000A128A1142220A128A11780883120313AA
:10015800CC004C073E3E840083130008831603132B
:100168009200760883120313CC0001300310CC0DE3
:10017800FF3E031DBA280A30CD004D08F400780868
:100188000A128A110D220A128A11203E83120313C1
:100198004C07CE004E08840083130008CF00840A61
:1001A8000008D0000310D00CCF0C0310D00CCF0CDB
:1001B8004F0895007608CC0001300310CC0DFF3EA7
:1001C800031DE1280A30CD004D08F40078080A1212
:1001D8008A110D220A128A11203E831203134C073A
:1001E800CE004E088400831300080339CF00033083
:1001F8000310CF0DFF3E031DFC2803104F0D0C3ECE
:1002080097000A128A116B210A128A1183120313AA
:10021800881C9B280A128A11DC210A128A110A12E8
:100228008A1131220A128A11780883120313CC002A
:100238004C073E3E84008313000883160313920084
:10024800760883120313CC0001300310CC0DFF3E57
:10025800031D29290A30CD004D08F40078080A1238
:100268008A110D220A128A11203E831203134C07A9
:10027800CE004E08840083130008033995007608E1
:10028800CC0001300310CC0DFF3E031D46290A3077
:10029800CD004D08F40078080A128A110D220A12BE
:1002A8008A11203E831203134C07CE004E088400A7
:1002B80083130008CF00840A0008D0000310D00C74
:1002C800CF0C0310D00CCF0C4F0897009628831240
:1002D80003138601C801C901CA01CB01C601C701C0
:1002E8007E2901307A2902307A290330C80000308B
:1002F800C9009C297908003A031983299C297808A0
:10030800003A03197529013A03197729033A0319A1
:1003180079299C299C2904309829083098290C307F
:100328009829103098291430CA000030CB00B2291F
:100338007708003A0319A129B2297608003A031967
:100348008F29013A03199129033A03199329013A8C
:1003580003199529073A03199729B2294A08480722
:100368008600080053340034D0340034A1340134FA
:100378007134023418340334323400347D34003498
:10038800FA34003477340134DB340134193400345E
:100398003F3400347D340034BC340034EE3400344F
:1003A800CF3400347C3400343E340034013400341B
:1003B800F401F5017508803AFF0080307F02031DC3
:1003C800E72962307402031808000130831203130E
:1003D80051065204031DDE29D101D2010130F40770
:1003E8000318F50A0030F507DE298B130B1D012AC7
:1003F8000B110130D1000030D2008B177308FF00B9
:1004080072088A0071088400700E8300FE0E7E0E4A
:10041800090083120313C700C601471C172A740872
:10042800F5007508C6070310F40D0310C70CC708BC
:10043800031D112A460808007E088A007F088200EA
:1004480020220A128A118000840A04087D060319F2
:100458000034FF0A0319FE0A242A00307902023008
:100468000319780203183F2A0130F8070318F90A1C
:100478000030F9070800F801F90108000030770298
:100488000430031976020318502A0130F6070318BE
:0E049800F70A0030F7070800F601F701080028
:02400E0071FF40
:00000001FF
