:060000000A128A11122809
:10000800FE00030EF6000408F7000A08F800831241
:1000180003137F08F9000A128A1119280A128A1193
:10002800152883010A128A11F5288B13FA01FB019E
:100038000C1FB5280C130A128A11CD200A128A1136
:100048007108FB01FB077008FA01FA07FB1B3B2844
:100058007B08803AFF0080307F02031D3528AA30D4
:100068007A0203183B28831203138601B5287B08FC
:10007800803AFF0080307F02031D4428AA307A02AC
:10008800031C53287B08803AFF0081307F02031D40
:100098004F2855307A02031853280130B2287B08BC
:1000A800803AFF0081307F02031D5C2855307A02B8
:1000B800031C6B287B08803AFF0082307F02031DF7
:1000C800672800307A0203186B280330B2287B08AF
:1000D800803AFF0082307F02031D742800307A02C4
:1000E800031C83287B08803AFF0082307F02031DAF
:1000F8007F28AB307A02031883280730B2287B08A0
:10010800803AFF0082307F02031D8C28AB307A02D0
:10011800031C9B287B08803AFF0083307F02031D65
:10012800972856307A0203189B280F30B2287B088C
:10013800803AFF0083307F02031DA42856307A02DC
:10014800031CB5287B08803AFF0084307F02031D1A
:10015800AF2801307A020318B5281F308312031321
:100168008600E830F0000330F1000A128A110D21F0
:100178000A128A11831203131F158B177908FF00BF
:1001880078088A0077088400760E8300FE0E7E0EBB
:100198000900F401F501831203131E08F200F301AC
:1001A8007208F4007308F5007508F3007408F2008B
:1001B8007208F300F2017208F4007308F50074087D
:1001C800831603131E04F2007508F3007208F40086
:1001D8007308F5007508F101F1077408F001F007DC
:1001E80008008316031386018312031386018030E7
:1001F800831603139F004130831203139F000B17CC
:10020800831603130C17831203130C138B171F1574
:100218000C29F301F4017408803AF2007108803A5D
:100228007202031D192970087302031808000130AF
:0C023800F3070318F40A0030F4070F2944
:02400E0071FF40
:00000001FF
