:060000000A128A11122809
:10000800FE00030EF0000408F1000A08F200831253
:1000180003137F08F3000A128A1127280A128A118B
:100028001528A001A101A201A3010A128A11EE203C
:100038000A128A11F7000A128A11EF20F8008301C8
:100048000A128A1183288B138B1844287028412898
:1000580001303D2802303D2803303D2804303D283A
:1000680005303D2806303D2807303D2808303D281A
:100078000930A0000030A1006A28A001A1016A2867
:100088000808003A03192C28013A03192E28033AC4
:1000980003193028063A03193228013A031934287B
:1000A800033A031936280E3A03193828013A031976
:1000B8003A28033A03193C28063A03194128013A19
:1000C80003192B28033A031941286A280130A20092
:1000D8000030A3008B1077280B1D77280B110130F7
:1000E800F7000030F8008B177308FF0072088A00C9
:1000F80071088400700E8300FE0E7E0E09004430E5
:100108008316031381008B170B170B168B118B1695
:100118000B118B100B10013086008701FF3088000F
:1001280083120313870183120313A601A70127086B
:10013800803AFF0080307F02031DA4280A3026027F
:100148000318972883120313230822040319B728D6
:10015800A201A301200887002108A701A7072008FA
:10016800A601A607B92826088700CD30F4004C3030
:10017800F5003F30F6000A128A11CD200A128A11C2
:10018800013083120313A6070318A70A0030A70734
:100198009B2883120313A401A501831203132508C6
:1001A800803AFF0080307F02031DDC286230240281
:1001B80003180800013077067804031DD128F701D9
:1001C800F801013083120313A4070318A50A0030AD
:0801D800A507D1280134003411
:02400E0071FF40
:00000001FF
