:060000000A128A11122809
:10000800FE00030EF1000408F2000A08F300831250
:1000180003137F08F4000A128A1178280A128A1139
:10002800152883010A128A111928831603138601D9
:10003800831203138601FF308316031388000A1204
:100048008A11E3200A128A110A128A110A210A1255
:100058008A1110300A128A11F2200A128A118312A8
:10006800031308080A128A11F2200A128A110A12C6
:100078008A1103210A128A11023083120313A40081
:100088000430A300BA30A200A20B4828A30B4828CA
:10009800A40B482800000A128A110A210A128A11A0
:1000A80011300A128A11F2200A128A1100300A123B
:1000B8008A11B7200A128A118312031386000A12C2
:1000C8008A1103210A128A11023083120313A40031
:1000D8000430A300BA30A200A20B7028A30B70282A
:1000E800A40B7028000028281412941B7D28141FC4
:1000F80084281308F0007008F500941314131416DC
:1001080083160313941E14199728831203131308D4
:10011800F0007008F50083160313141C8F2883124F
:1001280003131416AA28941E141DAA288312031355
:100138001308F0007008F5008316031314108312D7
:1001480003131416831603131418A62883128C118C
:100158007408FF0073088A0072088400710E830017
:10016800FE0E7E0E090083120313A0000A128A11E4
:10017800FB200A128A118316031391150A128A1199
:10018800FB200A128A11831203131308F60076085B
:10019800A1000A128A11FB200A128A118312031382
:1001A800A008031DDB28831603139116DE28831687
:1001B80003139112111683120313210808008316E2
:1001C8000313871507162830831203139400831628
:1001D800031391019401093093000800F6000A12F4
:1001E8008A11FB20760883120313930008008316F4
:1001F800031311081F3903191419FB2808000A12E0
:100208008A11FB2083160313111508000A128A119C
:0A021800FB208316031311140800E5
:02400E0071FF40
:00000001FF
