:060000000A128A11122809
:10000800FE00030E83120313C0000408C1000A088F
:10001800C2007F08C3000A128A11EC280A128A114A
:10002800152883010A128A11732B831203132008DF
:10003800A6002108A7002208A8000310270D280DF4
:10004800A9002908AA00AA08031D31280030A00029
:100058000030A1000030A20008002308A6002408F0
:10006800A7002508A8000310270D280DA9002908B6
:10007800AF00AF08031D47280030A0000030A100E2
:100088000030A20008002F087B3EA6002608AA0719
:100098002008A6002108A7002208A8001030031095
:1000A800A80CA70CA60CFF3E031D53282608A90080
:1000B8002908AF002308A6002408A7002508A800DF
:1000C80010300310A80CA70CA60CFF3E031D6528D2
:1000D8002608A9002908AF068030A6002608AF0523
:1000E800A117A417FF30A305FF30A4050030A5050C
:1000F8000030AB000030AC000030AD000730A60087
:100108002608AE00201C96282308AB0724080311F4
:100118000318240A031DAC07250803110318250A30
:10012800031DAD0701300310A20CA10CA00CFF3E6B
:10013800031D972801300310A30DA40DA50DFF3E44
:10014800031D9F280130AE02031D86280930A60032
:100158002608AE00201CBE282308AB07240803117C
:100168000318240A031DAC07250803110318250AE0
:10017800031DAD0701300310A20CA10CA00CFF3E1B
:10018800031DBF2801300310AD0CAC0CAB0CFF3EB7
:10019800031DC7280130AE02031DAE282B08F0004E
:1001A8002C08F1002D08F2002A08A6002608F30002
:1001B8002F08A7002708F4000A128A111A227008CB
:1001C80083120313A0007108A1007208A20008009E
:1001D800CA01CB010C1F74290C130A128A112A2395
:1001E8000A128A11710883120313CB01CB07700816
:1001F800CA01CA074B08F901F9074A08F801F807C4
:100208000A128A1152230A128A11780883120313D8
:10021800A3007908A4007A08A500B430A0004830EB
:10022800A1003D30A2000A128A1119200A128A116F
:10023800831203132008B0002108B1002208B2007D
:100248000A128A118C210A128A11831203133108A7
:10025800CD01CD073008CC01CC070A30F0000030C2
:10026800F1004D08F301F3074C08F201F2070A12F6
:100278008A1182220A128A11710883120313C50196
:10028800C5077008C401C4070A30F0000030F10047
:100298004D08F301F3074C08F201F2070A128A111C
:1002A800DD220A128A11710883120313C701C707D6
:1002B8007008C601C6074708BF004608BE00BE0E44
:1002C800BF0EF030BF053E080F39BF04F030BE0541
:1002D80044083E04C80045083F04C9004808860091
:1002E800E830F0000330F1000A128A118B230A1259
:1002F8008A11831203131F158B174308FF00420846
:100308008A0041088400400E8300FE0E7E0E09001C
:10031800831203133008B4003108B5003208B60060
:100328000310350D360DB7003708BD00BD08031D95
:10033800A6290030B3000030B2000030B100003010
:10034800B00008003008B4003108B5003208B60023
:1003580017300310B60CB50CB40CFF3E031DAD29C5
:100368003408B7003708B800B117FF30B005FF30C0
:10037800B1050030B2053008B9003108BA003208BA
:10038800BB00BC018E30BD02BD1FE8293D08803A84
:100398008F3E0318D8290030B3000030B200003077
:1003A800B1000030B000080001300310BC0CBB0CD9
:1003B800BA0CB90CFF3E031DD9290130B40034082A
:1003C800BD070319032AD82918303D02031C002A47
:1003D8000030B3000030B2000030B1000030B0008F
:1003E80008000130B4000310B90DBA0DBB0DBC0DE7
:1003F800B40BF7290130BD02BD08031DF5293808E3
:100408000319112AB909BA09BB09BC09B90A0319A0
:10041800BA0A0319BB0A0319BC0A3C08B3003B0813
:10042800B2003A08B1003908B0000800730803198F
:10043800222A720871047004031D352A0030F00066
:100448000030F1000030F20008000130F5007508B6
:10045800F30701300310F20CF10CF00CFF3E031D02
:100468002E2AFE3072050319502A292A0130F50078
:100478007508F3070130F007003003180130F10761
:10048800003003180130F20701300310F20CF10CB0
:10049800F00CFF3E031D492AFF30720503195F2A3D
:1004A8003A2A0130F30201300310F00DF10DF20D7C
:1004B800FF3E031D582AF11F552A7318692AFF3079
:1004C800F0057F30F105FF30F2050310F30C7308D7
:1004D800F500F601F70110300310F50DF60DF70DD4
:1004E800FF3E031D702A7508F0047608F1047708AA
:1004F800F204740803190800F2170800F601F11F46
:100508008C2AF009F109F00A0319F10AF601F60A32
:10051800F31F972AF209F309F20A0319F30A0130C3
:10052800F4007408F606F701F8017108700403195D
:10053800CE2AF501F50AF11BAD2A01300310F00DA2
:10054800F10DFF3E031DA22A0130F4007408F507DF
:100558009F2A01300310F70DF80DFF3E031DAE2A48
:1005680071087302031DBA2A70087202031CC32A99
:100578007008F2027108031CF303F30277140130C8
:100588000310F10CF00CFF3E031DC42A0130F502E4
:10059800031DAD2A76080319D62AF709F809F70AC0
:1005A8000319F80A7808F101F1077708F001F00754
:1005B8000800F601F31FE72AF209F309F20A031902
:1005C800F30AF601F60AF11FEE2AF009F109F00A1A
:1005D8000319F10A7108700403191B2BF501F50AB8
:1005E800F11B022B01300310F00DF10DFF3E031D2E
:1005F800F72A0130F4007408F507F42A7108730229
:10060800031D082B70087202031C102B7008F202DD
:100618007108031CF303F30201300310F10CF00C12
:10062800FF3E031D112B0130F502031D022B760836
:100638000319232BF209F309F20A0319F30A7308C1
:10064800F101F1077208F001F0070800F401F50163
:10065800831203131E08F200F3017208F4007308F2
:10066800F5007508F3007408F2007208F300F2014F
:100678007208F4007308F5007408831603131E0447
:10068800F2007508F3007208F4007308F5007508A5
:10069800F101F1077408F001F0070800FD01F91FE6
:1006A8005C2BF809F909F80A0319F90AFD01FD0A92
:1006B8007808F0007908F100F2018E30FB007B0821
:1006C800F3007D08FC007C08F4000A128A111A2243
:1006D8007008F8007108F9007208FA00080083161B
:1006E80003138601831203138601803083160313D4
:1006F8009F004130831203139F000B1783160313C7
:100708000C17831203130C138B171F158A2BF30175
:10071800F4017408803AF2007108803A7202031DED
:10072800972B70087302031808000130F3070318A9
:08073800F40A0030F4078D2BD8
:02400E0071FF40
:00000001FF
