:060000000A128A11FB2F19
:100DB000F300F201731CE02E7008F1007108F207D5
:100DC0000310F00D0310F30CF308031DDA2E720864
:100DD000080083120313CE01CF01CC01CD011430E2
:100DE000F4007408A0003430F4007408A1006830E6
:100DF000F4007408A2009C30F4007408A300C5300D
:100E0000F4007408A4003C30F4007408B4000C3002
:100E1000F4007408B5000C30F4007408B6001C30FF
:100E2000F4007408B7003C30F4007408B8000C30CB
:100E3000F4007408A5001F30F4007408A6003E30CA
:100E4000F4007408A7005D30F4007408A800763040
:100E5000F4007408A9002C30F4007408B9001C30A8
:100E6000F4007408BA002C30F4007408BB003C3065
:100E7000F4007408BC003C30F4007408BD00063077
:100E8000F4007408AA000F30F4007408AB001F309F
:100E9000F4007408AC002E30F4007408AD003B3050
:100EA000F4007408AE001C30F4007408BE002C304E
:100EB000F4007408BF001C30F4007408C0003C301B
:100EC000F4007408C1001C30F4007408C200CF3074
:100ED000F4007408C8007C30F4007408C9003E3087
:100EE000F4007408CA0048088316031392008312A2
:100EF0000313200895003408970083160313870115
:100F0000831203130711063092008316031388011E
:100F1000FF30831203138800CE2F08104D08803A4B
:100F2000FF0080307F02031D972F04304C0203180E
:100F3000A22F013083120313CC070318CD0A00300F
:100F4000CD07A62F83120313CC01CD010530F40089
:100F50007408F0004E080A128A11D8260A128A1163
:100F6000203E831203134C07F50075088400831399
:100F7000000895000530F4007408F0004E080A12CD
:100F80008A11D8260A128A11343E831203134C07A1
:100F9000F50075088400831300089700081486186C
:100FA0008D2F061CCE2F08104F08803AFF0080308E
:100FB0007F02031DDD2F03304E020318E82F01309E
:100FC00083120313CE070318CF0A0030CF07EC2F8C
:100FD00083120313CE01CF014E08483E84008313D1
:100FE00000088316031392000530F4007408F00023
:100FF00083120313AA2FF60183010A128A11E92E24
:02400E0071FF40
:00000001FF
