:100000000A128A11F42FFD01F91F0D28F809F909C8
:10001000F80A0319F90AFD01FD0A7808F0007908C9
:10002000F100F2018E30FB007B08F3007D08FC003C
:100030007C08F4000A128A1531237008F800710850
:10004000F9007208FA000800831203133008B600A2
:100050003108B7003208B8000310370D380DB90069
:100060003908BA00BA08031D3C280030B00000303F
:10007000B1000030B20008003308B6003408B70001
:100080003508B8000310370D380DB9003908BF0026
:10009000BF08031D52280030B0000030B10000300E
:1000A000B20008003F087B3EB6003608BA073008A9
:1000B000B6003108B7003208B80010300310B80C91
:1000C000B70CB60CFF3E031D5E283608B900390890
:1000D000BF003308B6003408B7003508B800103048
:1000E0000310B80CB70CB60CFF3E031D7028360881
:1000F000B9003908BF068030B6003608BF05B11711
:10010000B417FF30B305FF30B4050030B50500303B
:10011000BB000030BC000030BD000730B600360820
:10012000BE00301CA1283308BB0734080311031894
:10013000340A031DBC07350803110318350A031DD3
:10014000BD0701300310B20CB10CB00CFF3E031D13
:10015000A22801300310B30DB40DB50DFF3E031DF1
:10016000AA280130BE02031D91280930B6003608C6
:10017000BE00301CC9283308BB073408031103181C
:10018000340A031DBC07350803110318350A031D83
:10019000BD0701300310B20CB10CB00CFF3E031DC3
:1001A000CA2801300310BD0CBC0CBB0CFF3E031D64
:1001B000D2280130BE02031DB9283B08F0003C08DC
:1001C000F1003D08F2003A08B6003608F3003F0897
:1001D000B7003708F4000A128A1531237008831219
:1001E0000313B0007108B1007208B2000800831256
:1001F0000313AD002130A3002308A6000130A0079F
:10020000FF30200784000A128A150A200A128A1178
:10021000A3002308AE00AE080319CB292E08253A07
:1002200003191E292E08A3002D0884002308831318
:1002300080000130A3002308AD07FE28A70101308C
:10024000A007FF30200784000A128A150A200A122C
:100250008A11AE00003A0319CB29643A03193429F4
:100260000D3A03193429FE28260884008313000858
:10027000A900840A0008AA000230A3002308A607E8
:10028000AA1F4B290330A3002308A704A909AA0920
:10029000A90A0319AA0AAE01AE0A2E08053A0319E3
:1002A00072292E08A3002307013E84000A128A1532
:1002B0000A200A128A11A4000A128A150A200A12B8
:1002C0008A11A50025082A02031D6829240829028D
:1002D000031C72290130A3002308AE072E08053A3B
:1002E000031D512927080339031981292D30A30043
:1002F0002D0884002308831380000130A300230805
:10030000AD072E08A3002308A800FF30A300230890
:10031000A8072808FF3A0319FE280A30F800003021
:10032000F9002808A3002307013E84000A128A1559
:100330000A200A128A11F0000A128A150A200A12EB
:100340008A11F1002A08F301F3072908F201F207E4
:100350000A128A1514220A128A117108FB01FB077E
:100360007008FA01FA070A128A15E0210A128A11A6
:100370007808303E83120313A4002408AE002E0830
:10038000A3002D0884002308831380000130A300FC
:100390002308AD0785292D088400831380010800F8
:1003A000831203134008C6004108C7004208C80072
:1003B0000310470D480DC9004908CC004308C6008A
:1003C0004408C7004508C8000310470D480DC90080
:1003D0004908CB004C080319F9294B084C020318B3
:1003E000002A4C03FF3A4B07C60019304602031C93
:1003F000002A4308C0004408C1004508C2000800A4
:100400004B08031908004C084B0203180F2A4B0332
:10041000FF3A4C07C60019304602031808000630A0
:10042000C6004608CA00C21BCA17C51B4A17C11717
:10043000FF30C005FF30C1050030C205C417FF30D2
:10044000C305FF30C4050030C5054B084C02031836
:100450004F2A01300310C30DC40DC50DFF3E031D0F
:100460002A2A0130CB024B084C0603194A2A0130D4
:10047000CA024A08073903194A2A292A01300310F7
:10048000C20CC10CC00CFF3E031D3F2A0130C60048
:100490004608CC074C084B060319782A3E2A4C081C
:1004A0004B020318782A01300310C00DC10DC20D94
:1004B000FF3E031D542A0130CC024B084C060319A1
:1004C000742A0130CA024A0807390319742A532AC8
:1004D00001300310C50CC40CC30CFF3E031D692A78
:1004E0000130C6004608CB074C084B06031D682A9E
:1004F000CA1F8A2AFF30C006FF30C106FF30C2067D
:100500000130C007003003180130C1070030031864
:100510000130C2074A1F9C2AFF30C306FF30C406C1
:10052000FF30C5060130C307003003180130C4078F
:10053000003003180130C507CA014008C30741084D
:1005400003110318410A031DC407420803110318CD
:10055000420A031DC507C51FBF2AFF30C306FF306F
:10056000C406FF30C5060130C30700300318013050
:10057000C407003003180130C507CA01CA0A43087E
:10058000F0004408F1004508F2004C08C600460897
:10059000F3004A08C7004708F4000A128A153123FD
:1005A000700883120313C0007108C1007208C200F2
:1005B000080083160313B6012B082A042904031D1F
:1005C000032B0030F0000030F1000030F2002C0866
:1005D000F3002D08F4002E08F5000A128A15D42223
:1005E0000A128A11031CFA2A213083160313CD0044
:1005F0000030CE00003083160313A9000030AA009B
:100600000030AB0008002E082D042C04031D0F2B16
:100610000030A9008030AA003F30AB000800290854
:10062000F0002A08F1002B08F2000030F30000303F
:10063000F4000030F5000A128A15D4220A128A1139
:1006400003188F2B831603132C0883120313CD007A
:10065000831603132D0883120313CE00831603138E
:100660002E0883120313CF000A128A1512240A12CD
:100670008A1183120313500883160313BA008312DE
:1006800003134F0883160313B900831203134E0894
:1006900083160313B800831203134D088316031344
:1006A000B7003A08FB003908FA003808F9003708A3
:1006B000F8000A128A15B5210A128A11831603134B
:1006C0002E087A06031D6A2B2D087906031D6A2B56
:1006D0002C0878060319772B2130CD000030CE008E
:1006E0000030A9000030AA000030AB000800370835
:1006F0000139AF002F08B6002908F0002A08F100E0
:100700002B08F2000A128A15B0200A128A1170080A
:1007100083160313A9007108AA007208AB008316A0
:100720000313290883120313D700831603132A081F
:1007300083120313D800831603132B0883120313A9
:10074000D9000A128A1530270A128A11831203135C
:10075000570883160313B000831203135808831637
:100760000313B10083120313590883160313B20055
:100770002C0883120313B000831603132D08831271
:100780000313B100831603132E0883120313B20060
:1007900083160313300883120313B3008316031365
:1007A000310883120313B400831603133208831233
:1007B0000313B5000A128A1124200A128A11831227
:1007C0000313300883160313B30083120313310895
:1007D00083160313B4008312031332088316031322
:1007E000B500330883120313EC0083160313340897
:1007F00083120313ED0083160313350883120313CA
:10080000EE000A128A112D240A128A118312031390
:100810006C0883160313A900831203136D08831653
:100820000313AA00831203136E0883160313AB008D
:100830003608031908002908F0002A08F1002B08DF
:10084000F2000A128A15B020700883160313A9005B
:100850007108AA007208AB000800831203136E0827
:100860006D046C04031D3B2C0030EC008030ED0067
:100870003F30EE0008007230F0003130F1004430BB
:10088000F2006C08F3006D08F4006E08F5000A121F
:100890008A15D4220A128A1103185C2C223083167E
:1008A0000313CD000030CE00FF308312EC007F3008
:1008B000ED007F30EE000800831203136C08F00097
:1008C0006D08F1006E08F2004930F3003A30F40090
:1008D000C430F5000A128A15D4220A128A110318AC
:1008E000802C223083160313CD000030CE00003060
:1008F00083120313EC000030ED000030EE0008001E
:10090000831203136C08F0006D08F1006E08F2000A
:100910000030F3000030F4000030F5000A128A15B0
:10092000D4220A128A110030031C013083120313EF
:10093000EF006F0883160313A80028080319B72CCB
:10094000831203136C08F0006D08F1006E08F200CA
:100950000A128A15B0200A128A1170088312031332
:10096000EC007108ED007208EE0083160313AA3044
:100970008312B000B830B1003F30B2006C08B30051
:100980006D08B4006E08B5000A128A1124200A12FC
:100990008A11831203133008EC003108ED0032088D
:1009A000EE006C08E3006D08E4006E08E5000A1232
:1009B0008A15A0240A128A1183120313630883166E
:1009C0000313A00083120313640883160313A1000A
:1009D00083120313650883160313A20020088312F1
:1009E0000313CD0083160313210883120313CE00D3
:1009F00083160313220883120313CF000A128A15E9
:100A000012240A128A11831203134E088316031349
:100A1000A701A707831203134D0883160313A6012A
:100A2000A6072708F901F9072608F801F8070A12AE
:100A30008A1103200A128A11780883120313CD0049
:100A40007908CE007A08CF006C08D0006D08D1007C
:100A50006E08D2000A128A15E1200A128A11831246
:100A600003134D08EC004E08ED004F08EE006C0833
:100A7000CD006D08CE006E08CF000B30EF006F0880
:100A8000D0000930D1000030D2000A128A15992313
:100A90000A128A11831203134D08D7004E08D8009A
:100AA0004F08D90083160313270883120313DB01B1
:100AB000DB0783160313260883120313DA01DA0710
:100AC0000A128A1539250A128A118312031357084C
:100AD000EC005808ED005908EE00831603132808AF
:100AE00003190800FF30A3007F30A4007F30A50069
:100AF000831203136E08831603132506031D8E2D20
:100B0000831203136D08831603132406031D8E2D11
:100B1000831203136C08831603132306031D992DF8
:100B2000003083120313EC000030ED000030EE00C3
:100B3000080083126C08A0006D08A1006E08A200D6
:100B40000030A3008030A4003F30A5000A128A15AF
:100B50007826831203132008EC002108ED002208F8
:100B6000EE000800003083160313AC006030AD00C7
:100B70004130AE000030A9000030AA004030AB0088
:100B80000A128A11D9220A128A118316031329081C
:100B9000BE002A08BF002B08C0003E0883120313C2
:100BA000CD00831603133F0883120313CE00831670
:100BB0000313400883120313CF000A128A1512246C
:100BC0000A128A11831203134E0883160313C601F7
:100BD000C607831203134D0883160313C501C50707
:100BE000C901CA01CB01CC0188018312031388011A
:100BF0008316031386018312031386010A128A15D2
:100C0000C1200A128A110A128A15FD200A128A11BD
:100C10000A128A159A200A128A1180300A128A153D
:100C2000B8200A128A11E5300A128A15B8200A1271
:100C30008A110A128A1593200A128A1181300A1227
:100C40008A15B8200A128A1101300A128A153D212C
:100C50000A128A1183160313BB00BC013B08C900AA
:100C60003C08CA0000300A128A153D210A128A1176
:100C700083160313BB00BC013B08CB003C08CC002F
:100C80000A128A15A1200A128A1102308316031350
:100C9000BD000430BC00BA30BB00BB0B4D2EBC0BFA
:100CA0004D2EBD0B4D2E0000831603134A08BC00C9
:100CB0004908BB000630FF000310BB0DBC0DFF0B45
:100CC0005C2E3B08C9003C08CA004C08BC004B081D
:100CD000BB003C0DBC0CBB0C3C0DBC0CBB0C3B0866
:100CE000CB003C08CC004B084904C1004C084A0426
:100CF000C2004208F901F9074108F801F8070A1291
:100D00008A1103200A128A11780883120313A300A0
:100D10007908A4007A08A500831603134608F90190
:100D2000F9074508F801F8070A128A1103200A1288
:100D30008A11780883120313A0007908A1007A08A9
:100D4000A2000A128A1578260A128A118312031346
:100D50002008B3002108B4002208B5000030B0001C
:100D6000FA30B1004230B2000A128A1124200A126D
:100D70008A11831203133008C3003108C4003208FB
:100D8000C5000030C000C030C100C030C2000A122F
:100D90008A11D0210A128A11831203134008CD0050
:100DA0004108CE004208CF000A128A1512240A1206
:100DB0008A11831203134E0883160313D001D00740
:100DC000831203134D0883160313CF01CF07C90104
:100DD000CA01CB01CC010230BD000430BC00BA30E6
:100DE000BB00BB0BF12EBC0BF12EBD0BF12E000096
:100DF0000A128A159A200A128A1180300A128A155C
:100E0000B8200A128A11E3300A128A15B8200A1291
:100E10008A110A128A1593200A128A1181300A1245
:100E20008A15B8200A128A1101300A128A153D214A
:100E30000A128A1183160313BB00BC013B08C900C8
:100E40003C08CA0000300A128A153D210A128A1194
:100E500083160313BB00BC013B08CB003C08CC004D
:100E60000A128A15A1200A128A11831603134A084E
:100E7000BC004908BB000630FF000310BB0DBC0DD1
:100E8000FF0B3D2F3B08C9003C08CA004C08BC00C2
:100E90004B08BB003C0DBC0CBB0C3C0DBC0CBB0C94
:100EA0003B08CB003C08CC004B084904C3004C086D
:100EB0004A04C4004408F901F9074308F801F80797
:100EC0000A128A1103200A128A1178088312031366
:100ED000A3007908A4007A08A50083160313460826
:100EE000F901F9074508F801F8070A128A110320E9
:100EF0000A128A11780883120313A0007908A1004E
:100F00007A08A2000A128A1578260A128A11831218
:100F100003132008B3002108B4002208B500B8303C
:100F2000B0002F30B1004330B2000A128A112420E1
:100F30000A128A11831203133008C3003108C40057
:100F40003208C5006630C0003B30C100C230C2006C
:100F50000A128A11D0210A128A118312031340083F
:100F6000CD004108CE004208CF000A128A15122493
:100F70000A128A11831203134E0883160313D20137
:100F8000D207831203134D0883160313D101D1072F
:100F90000A128A15D2250A128A1102308316031307
:100FA000BD000430BC00BA30BB00BB0BD52FBC0B5E
:100FB000D52FBD0BD52F000083160313C701C80121
:100FC0004808803AFF0083307F02031DE92FE83094
:100FD00047020318082E013083160313C7070318AE
:100FE000C80A0030C807E02F83160313CD01CE01D5
:100FF000CF01D001D101D20183010A128A11B22D91
:10100000FF1B0A2883137F1883170008840A03191B
:10101000FF0A080008308A000408840A82070034A6
:10102000013400340A34003464340034E8340334C6
:1010300010342734003480343F34723431343F3438
:10104000FE3475343E34583463343D3495341D34A5
:101050003C34C534AE343A347934213439349434A0
:10106000803437349334A73435345634153434341B
:10107000003400340034003480343F34F034FF3422
:10108000BE34E234A9343E3483347634BE34AE34D4
:101090002B343E343C34C334BD34D23413343D3469
:1010A0007834D334BB34543465346D34703465349F
:1010B0007234613474347534723465343A342034A3
:1010C0000034483475346D346934643469347434AC
:1010D00079343A342034003420342034203420341D
:0810E0000034253464340034AF
:101126000A128A15A82083160313911408000A12BE
:101136008A15A82083160313111408000A128A15AB
:10114600A82083160313111508008316031311082C
:101156001F3903191419A8280800720871047004AD
:10116600031908008030F2060800F0000A128A15FA
:10117600A820700883120313930008008316031334
:10118600871507162830831203139400831603135A
:1011960091019401093093000800F300F201731CD9
:1011A600D8287008F1007108F2070310F00D03103B
:1011B600F30CF308031DD22872080800803083124E
:1011C6000313CF065008C0005108C1005208C200E0
:1011D6004D08C3004E08C4004F08C5000A128A1104
:1011E600D021831203134008CD004108CE004208E7
:1011F600CF00080038300A128A1563210A128A15B0
:101206000C300A128A1563210A128A1501300A1255
:101216008A1563210A128A1506300A128A15632175
:101226000A128A1580300A128A156321080074088A
:1012360083120313FF00730884000A128A15002024
:101246000A128A150038031908007408831203135A
:10125600FF00730884000A128A1500200A128A15F4
:101266000A128A158C210A128A150130F30703180F
:10127600F40A1A29F1000A128A15A8200A128A15F8
:101286008316031391150A128A15A8200A128A15C5
:10129600831203131308F0007008F2000A128A156D
:1012A600A8200A128A15F108031D5D298316031367
:1012B60091166029831603139112111672080800FD
:1012C600F000831203130810700886000815F10158
:1012D600F2017208803AFF0083307F02031D7529F0
:1012E600E8307102031888290130F1070318F20A61
:1012F6000030F2077208803AFF0083307F02031D38
:101306008629E8307102031C77298312031308111A
:101316000800F000831203130814700886000815ED
:10132600F101F2017208803AFF0083307F02031D4B
:101336009E29E83071020318B1290130F10703181C
:10134600F20A0030F2077208803AFF0083307F020B
:10135600031DAF29E8307102031CA0298312031371
:10136600081108008E30FC007C08FD00FF307B056C
:101376000319CB2901300310FB0CFA0CF90CF80CFD
:10138600FF3E031DBE290130FC007C08FD07B9297C
:101396007808F0007908F1007A08F2007D08FC0070
:1013A6007C08F300F4010A128A1531237008F8004C
:1013B6007108F9007208FA00080079087804031920
:1013C6000D2AFD01FD0AF91BF42901300310F80D61
:1013D600F90DFF3E031DE9290130FC007C08FD07DD
:1013E600E62979087B02031DFA2978087A02031C8C
:1013F600022A7808FA027908031CFB03FB02013073
:101406000310F90CF80CFF3E031D032A0130FD0200
:10141600031DF4297B08F901F9077A08F801F80792
:101426000800F501F6017108700403194B2AF7014B
:10143600F70AF11B2A2A01300310F00DF10DFF3EC9
:10144600031D1F2A0130F4007408F7071C2A013017
:101456000310F50DF60DFF3E031D2B2A71087302CE
:10146600031D372A70087202031C402A7008F20214
:101476007108031CF303F302751401300310F10C19
:10148600F00CFF3E031D412A0130F702031D2A2AF4
:101496007608F101F1077508F001F00708007208F7
:1014A60071047004031D642A730884008313800189
:1014B600840A80010030F0000030F1000030F200B4
:1014C600080072087F39F400F5010310F40DF50DDC
:1014D60073088400740883138000840A75088000EA
:1014E600710D710D0139F400F5017308840074085B
:1014F6008004840A7508800473088400823080079B
:10150600840F00080318000AFF00FF307F078000E1
:101516008403720880393F38F200F1130800831201
:101526000313E2018E30DF005F08E100DE1FA82A08
:10153600DB09DC09DD09DE09DB0A0319DC0A03190C
:10154600DD0A0319DE0AE201E20AFF305E0503192D
:10155600BA2A01300310DE0CDD0CDC0CDB0CFF3E7E
:10156600031DAD2A0130DF005F08E107A82A5B08EA
:10157600F0005C08F1005D08F2006108DF005F081A
:10158600F3006208E0006008F4000A128A153123AD
:10159600700883120313DB007108DC007208DD009B
:1015A6000800F21FFB2A0030F6000030F7008030FA
:1015B600F8007009F9007109FA007209FB00F90ACE
:1015C6000319FA0A0319FB0A7908F6077A080318B9
:1015D6007A0FEE2AEF2AF7077B0803187B0FF42A07
:1015E600F52AF8077608F0007708F1007808F20087
:1015F600F51F222B0030F6000030F7008030F8008F
:101606007309F9007409FA007509FB00F90A031950
:10161600FA0A0319FB0A7908F6077A0803187A0FFB
:10162600152B162BF7077B0803187B0F1B2B1C2B80
:10163600F8077608F3007708F4007808F50080309C
:10164600F2068030F50675087202031D080074085C
:101656007102031D0800730870020800730803195D
:10166600392B720871047004031D4C2B0030F000F6
:101676000030F1000030F20008000130F500750876
:10168600F30701300310F20CF10CF00CFF3E031DC2
:10169600452BFE3072050319672B402B0130F500F0
:1016A6007508F3070130F007003003180130F10721
:1016B600003003180130F20701300310F20CF10C70
:1016C600F00CFF3E031D602BFF3072050319762BCD
:1016D600512B0130F30201300310F00DF10DF20D24
:1016E600FF3E031D6F2BF11F6C2B7318802BFF30F1
:1016F600F0057F30F105FF30F2050310F30C730897
:10170600F500F601F70110300310F50DF60DF70D93
:10171600FF3E031D872B7508F0047608F104770851
:10172600F204740803190800F21708000330831244
:101736000313D3005308F00051080A128A15D0206B
:101746000A128A1583120313500784000A128A1597
:101756000A200A128A15D4000A128A150A200A12C9
:101766008A15D5000A128A150A200A128A15D60089
:101776005208510403190B2C0330D3005308F00010
:10178600FF30D1070318D20AFF30D20751080A12D8
:101796008A15D0200A128A15831203135007840073
:1017A6000A128A150A200A128A15C0000A128A1518
:1017B6000A200A128A15C1000A128A150A200A127C
:1017C6008A15C2005408B0005508B1005608B20088
:1017D6004D08B3004E08B4004F08B5000A128A112E
:1017E60024200A128A15831203133008C300310815
:1017F600C4003208C5000A128A11D0210A128A15BD
:10180600831203134008D4004108D5004208BA2BBE
:101816005408CD005508CE005608CF0008008312A4
:1018260003134D08D1004E08D2004F08D300031011
:10183600520D530DD4005408DA00DA08031D2C2C7F
:101846000030D0000030CF000030CE000030CD0098
:1018560008004D08D1004E08D2004F08D3001730BB
:101866000310D30CD20CD10CFF3E031D332C5108B0
:10187600D4005408D500CE17FF30CD05FF30CE0575
:101886000030CF054D08D6004E08D7004F08D800C7
:10189600D9018E30DA02DA1F6E2C5A08803A8F3E52
:1018A60003185E2C0030D0000030CF000030CE0090
:1018B6000030CD00080001300310D90CD80CD70C2D
:1018C600D60CFF3E031D5F2C0130D1005108DA070C
:1018D6000319892C5E2C18305A02031C862C003002
:1018E600D0000030CF000030CE000030CD00080020
:1018F6000130D1000310D60DD70DD80DD90DD10B5F
:101906007D2C0130DA02DA08031D7B2C55080319F9
:10191600972CD609D709D809D909D60A0319D70A9F
:101926000319D80A0319D90A5908D0005808CF0054
:101936005708CE005608CD0008008312031363082B
:10194600F0006408F1006508F2006A30E6006608F7
:10195600F3000A128A1552220A128A1583120313F9
:10196600EB1FDA2C6308F0006408F1006508F2004A
:101976000030F3000030F4000030F5000A128A153A
:10198600D4220A128A150318D12C003083120313AD
:10199600E3008030E400BF30E50008000030831229
:1019A6000313E3000030E4000030E50008000030D7
:1019B6006B02153003196A02031808006308CD008C
:1019C6006408CE006508CF000A128A1512240A128E
:1019D6008A15831203135008DE004F08DD004E08F7
:1019E600DC004D08DB000A128A1592220A128A15BB
:1019F600831203135B08E7005C08E8005D08E90052
:101A06006308F0006408F1006508F2006708F30057
:101A16006808F4006908F5000A128A15D4220A1229
:101A26008A150318302D003083120313C00080304E
:101A3600C100BF30C2006708C3006808C400690857
:101A4600C5000A128A11D021831203134008E3004D
:101A56004108E4004208E500080083120313670802
:101A6600E3006808E4006908E50008008312031330
:101A7600590858045704031D472D0030D70000307D
:101A8600D8000030D900080059087F39DC00DD0194
:101A96000310DC0DDD0D5C08DA070318DB0A5D08B0
:101AA600DB07580D580D0139DC00DD015C08DA074B
:101AB6000318DB0A5D08DB07DB1F702D2230831657
:101AC6000313CD000030CE00003083120313D7007D
:101AD6000030D8000030D90008005B08803AFF00CB
:101AE60081307F02031D792D00305A02031CB92D67
:101AF600223083160313CD000030CE008312031369
:101B06005708F0005808F1005908F2000030F300B9
:101B16000030F4000030F5000A128A15D4220A12A9
:101B26008A150318B02DFF3083120313DE007F30B1
:101B3600DF007F30E0005E08F0005F08F10060081B
:101B4600F2000A128A15B020700883120313D70018
:101B56007108D8007208D9000800FF3083120313F9
:101B6600D7007F30D8007F30D900080083120313D6
:101B76005B08DD005A08DC005D0DDD0CDC0C590845
:101B86005C0680395C06D9005A080139DC00DC0C99
:101B9600DC0C58085C067F395C06D80008008A30E1
:101BA6000A128A1563210A128A155D30F300803005
:101BB600F4000A128A151A210A128A15CC300A1262
:101BC6008A1563210A128A155D30F3008030F4000D
:101BD6000A128A151A210A128A1580300A128A15E3
:101BE60063210A128A155230F3008030F4000A127B
:101BF6008A151A210A128A15623083120313AF005E
:101C06002F08A00083160313500883120313A201A2
:101C1600A207831603134F0883120313A101A1071A
:101C260030300A128A11F7200A128A153030F30072
:101C36000030F4000A128A151A210A128A15253074
:101C46000A128A158C210A128A15C0300A128A15C0
:101C560063210A128A154430F3008030F4000A1218
:101C66008A151A210A128A15623083120313AF00ED
:101C76002F08A00083160313520883120313A20130
:101C8600A20783160313510883120313A101A107A8
:101C96003A300A128A11F7200A128A153A30F300EE
:101CA6000030F4000A128A151A210A128A154330E6
:101CB6000A128A158C210A128A1583120313C4018B
:101CC600C5014508803AFF0083307F02031D6D2E53
:101CD600E830440203180800013083120313C407D6
:101CE6000318C50A0030C507642E831203132308A0
:101CF600A6002408A7002508A8000310270D280D14
:101D0600A9002908AE00AE08031D902E0030A000E1
:101D16000030A1000030A20008002008A60021081B
:101D2600A7002208A8000310270D280DA9002908DE
:101D3600AF00AF08031DA62E0030A0000030A100A2
:101D46000030A20008000030AB000030AC000030CC
:101D5600AD0089302F07A6002608AE022308A6008C
:101D66002408A7002508A80010300310A80CA70C0B
:101D7600A60CFF3E031DB82E2608A9002908AF00B1
:101D86002008A6002108A7002208A800103003108A
:101D9600A80CA70CA60CFF3E031DCA2E2608A900F8
:101DA6002908AF068030A6002608AF05A417FF3025
:101DB600A305FF30A4050030A505A117FF30A00537
:101DC600FF30A1050030A2051830A6002608AA009B
:101DD60001300310AB0DAC0DAD0DFF3E031DEC2E17
:101DE60022082502031DFD2E21082402031DFD2EB7
:101DF60020082302031C0A2F2008A3022108031C23
:101E0600210FA4022208031C220AA5022B1401306A
:101E16000310A30DA40DA50DFF3E031D0B2F0130CE
:101E2600AA02031DEB2E2B08F0002C08F1002D084A
:101E3600F2002E08A6002608F3002F08A7002708A0
:101E4600F4000A128A153123700883120313A000C6
:101E56007108A1007208A200080083120313570834
:101E6600F0005808F1005908F2000030F300003085
:101E7600F4000030F5000A128A15D4220A128A15D7
:101E86000318542F213083160313CD000030CE00E3
:101E9600003083120313D7000030D8000030D90079
:101EA600080083120313590858045704031D6A2FA8
:101EB600223083160313CD000030CE00003083128B
:101EC6000313D7000030D8000030D90008000030D6
:101ED600C0008030C100BF30C2000030B00000300A
:101EE600B1004030B2005B30DA005A08F300570800
:101EF600F0005808F1005908F2000A128A15522219
:101F06000A128A15700883120313B3007108B4000D
:101F16007208B5000A128A1124200A128A15831241
:101F260003133008C3003108C4003208C5000A1282
:101F36008A11D0210A128A15831203134008D7008A
:101F46004108D8004208D900FF30DB070318DC0A35
:101F5600FF30DC075708CD005808CE005908CF00DF
:101F66002930DA005A08D0000830D1000030D200FB
:101F76000A128A1599230A128A15831203134D0829
:101F8600D7004E08D8004F08D9005708C000580897
:101F9600C1005908C2007230B0003130B1003F3084
:101FA600B2005C08F901F9075B08F801F8070A12A4
:101FB6008A1103200A128A15780883120313B300C4
:101FC6007908B4007A08B5000A128A1124200A1288
:101FD6008A15831203133008C3003108C40032087F
:101FE600C5000A128A11D021831203134008D700B4
:0A1FF6004108D8004208D900080095
:02400E0071FF40
:00000001FF
