:060000000A128A11122809
:10000800FE00030EF0000408F1000A08F200831253
:1000180003137F08F3000A128A117F290A128A1132
:100028001528F601F701F801F901CE01CF01D00139
:10003800D10183134430FD000130FE003A30FF0047
:10004800203084000A128A11AA2183010A128A1117
:100058002D288B1743308316031381008B160B1141
:100068000330880087018312031307114E08C70065
:1000780047073E3E8400831300088316031392004B
:10008800831203135008C70001300310C70DFF3E49
:10009800031D49280A30C8004808F4004E080A120F
:1000A8008A1193210A128A11203E831203134707EB
:1000B800C9004908840083130008CA00840A00089C
:1000C800CB000310CB0CCA0C0310CB0CCA0C4A088B
:1000D80095005008C70001300310C70DFF3E031DEF
:1000E80070280A30C8004808F4004E080A128A111D
:1000F80093210A128A11203E831203134707C9006D
:100108004908840083130008CA00840A0008CB0049
:1001180003304A05CC0000304B05CD004C08C70021
:1001280003300310C70DFF3E031D95280310470D2C
:100138000C38970006309200081CBB286230F40087
:100148000030F5000A128A115E210A128A11013064
:1001580083120313CE070318CF0A0030CF070330EA
:100168004E064F04031DD528CE01CF01D528881C83
:10017800D5286230F4000030F5000A128A115E2199
:100188000A128A11013083120313D0070318D10A07
:100198000030D107053050065104031DD528D00181
:1001A800D1014E08C70047073E3E8400831300086C
:1001B800831603139200831203135008C7000130FB
:1001C8000310C70DFF3E031DE4280A30C800480885
:1001D800F4004E080A128A1193210A128A11203E4D
:1001E800831203134707C9004908840083130008D2
:1001F800CA00840A0008CB000310CB0CCA0C0310F9
:10020800CB0CCA0C4A0895005008C70001300310EF
:10021800C70DFF3E031D0B290A30C8004808F4002B
:100228004E080A128A1193210A128A11203E83125B
:1002380003134707C9004908840083130008CA004C
:10024800840A0008CB0003304A05CC0000304B0577
:10025800CD004C08C70003300310C70DFF3E031D37
:1002680030290310470D0C389700A0286434003457
:10027800FA340034F4340134EE340234B63403343E
:10028800323400347D340034FA34003477340134A5
:10029800DB340134193400343E3400347D34003406
:1002A800BB340034ED340034F93400347D34003488
:1002B8003D34003483120313C501C60183120313AE
:1002C8004608803AC4007508803A4402031D6E2926
:1002D800740845020318080079087804031962298C
:1002E800013083120313C5070318C60A0030C60776
:1002F800F801F90162298B130B1D87290B110130B5
:10030800F8000030F9008B177308FF0072088A00A4
:1003180071088400700E8300FE0E7E0E09008312A1
:100328000313C500C401451C9D297408F500750810
:10033800C4070310F40D0310C50CC508031D972945
:10034800440808007E088A007F088200A6210A1255
:100358008A118000840A04087D0603190034FF0A04
:060368000319FE0AAA2998
:02400E0071FF40
:00000001FF
