:100000000A128A11FC2F00308A000408840A820731
:1000100000341D34003418340034193400341A34D8
:1000200000341434003415340034163400341034E1
:10003000003411340034123400341F3400341B34C3
:10004000003417340034133400341E340034303498
:10005000313432343334343435343634373438345C
:0C00600039342B342D342A342F343D3435
:100B3000F301F4017408803AF2007108803A7202FD
:100B4000031DA42D70087302031808000130F30779
:100B50000318F40A0030F4079A2D83120313AC0132
:100B6000AD01C03083160313810086018701831213
:100B7000031386018701FF30831603138800FF30BB
:100B80008312031388000A128A114E260A128A1150
:100B900083120313081EC82D2C300A128A11352720
:100BA0000A128A11C82D831203132208860000300E
:100BB000F0002030F1000A128A1198250A128A11D9
:100BC00004308312031387000030F0002030F1005E
:100BD0000A128A1198250A128A11831203138701B7
:100BE0000030F0002030F1000A128A11982583129B
:100BF00003138701080083120313A001A101791CCC
:100C0000092E7B0883120313A0070318A10A7C088E
:100C1000A10701300310FB0DFC0DFF3E031D0A2E42
:100C200001300310FA0CF90CFF3E031D112E7A0857
:100C30007904031DFF2D831203132108FA01FA071B
:100C40002008F901F9070800F5007508831203135D
:100C500086000030F0002030F1000A128A11982539
:100C60000A128A1106308312031387000030F00045
:100C70002030F1000A128A1198250A128A110230D6
:100C80008312031387000030F0002030F1000A12B5
:100C90008A11982583120313870108000030F000A1
:100CA0002030F1000A128A1198250A128A11383070
:100CB00083120313A2000030A3000A128A11D32565
:100CC0000A128A11083083120313A2000030A30015
:100CD0000A128A11D3250A128A11013083120313D2
:100CE000A2000030A3000A128A11D3250A128A1129
:100CF000063083120313A2000030A3000A128A11E7
:100D0000D3250A128A110C3083120313A20000307B
:100D1000A3000A128A11D3250800F601F31F972EAB
:100D2000F209F309F20A0319F30AF601F60AF11FB0
:100D30009E2EF009F109F00A0319F10A71087004F6
:100D40000319CB2EF501F50AF11BB22E0130031069
:100D5000F00DF10DFF3E031DA72E0130F4007408C5
:100D6000F507A42E71087302031DB82E70087202D5
:100D7000031CC02E7008F2027108031CF303F30277
:100D800001300310F10CF00CFF3E031DC12E0130A9
:100D9000F502031DB22E76080319D32EF209F309CA
:100DA000F20A0319F30A7308F101F1077208F0015E
:100DB000F0070800F601F11FE42EF009F109F00A2E
:100DC0000319F10AF601F60AF31FEF2EF209F309EF
:100DD000F20A0319F30A0130F4007408F606F70169
:100DE000F801710870040319262FF501F50AF11BAB
:100DF000052F01300310F00DF10DFF3E031DFA2EFB
:100E00000130F4007408F507F72E01300310F70DD8
:100E1000F80DFF3E031D062F71087302031D122FEC
:100E200070087202031C1B2F7008F2027108031C69
:100E3000F303F302771401300310F10CF00CFF3EC2
:100E4000031D1C2F0130F502031D052F7608031921
:100E50002E2FF709F809F70A0319F80A7808F101A3
:100E6000F1077708F001F007080083120313AB00C5
:100E70000808A400A5012408A7002508A800A901C6
:100E8000AA0100302A020F300319290203187E2F0D
:100E90002908A4002407013E84000A128A110320B5
:100EA0000A128A11A5000A128A1103200A128A1155
:100EB000A60028082606031D5F2F27082506031D08
:100EC0006F2F29081F3E84000A128A1103200A127C
:100ED0008A110A128A1124260A128A117E2F0130E1
:100EE00083120313A9070318AA0A0030AA070030C7
:100EF0002A020F3003192902031C482F5030F0003A
:100F00000030F100831203132B08840083130008C0
:100F1000A400840A0008A5002408013EF200250868
:100F20000318013E003EF3000A128A118D260A12B0
:100F30008A11831203132B08840070088313800026
:100F4000840A710880001430F0000030F1002B0892
:100F500084000008F200840A0008F3000A128A11D3
:100F60008D260A128A1171087004031DEA2F1430AD
:100F7000F0000030F100831203132B088400831368
:100F80000008F200840A0008F3000A128A11DA2627
:100F90000A128A117008FF3EF90071080318013E19
:100FA000FF3EFA003430FB000030FC000A128A11C8
:100FB000FB250A128A117908C03E83120313A2008E
:100FC0007A080318013E003EA3000A128A11D325B5
:100FD0000A128A11831203132B088400831300085A
:100FE000840A0004031D08000130A2000030A300A1
:100FF0000A128A11D325080083010A128A11AD2D25
:00000001FF
