:060000000A128A11FC2F18
:100C7A00F301F4017408803AF2007108803A7202B2
:100C8A00031D492E70087302031808000130F30788
:100C9A000318F40A0030F4073F2EFC01FD01C030AE
:100CAA0083160313810086018701831203138601C9
:100CBA008701FF30831603138800FF308312031362
:100CCA0088000A128A11C8260A128A11831203138B
:100CDA00081E6B2E7C300A128A11FD260A128A110E
:100CEA006B2E7508831203138600D030F00007308C
:100CFA00F1000A128A113D260A128A11043083125F
:100D0A0003138700D030F0000730F1000A128A116D
:100D1A003D260A128A11831203138701D030F0008C
:100D2A000730F1000A128A113D2683120313870144
:100D3A000800F5007508831203138600D030F0000E
:100D4A000730F1000A128A113D260A128A1106306A
:100D5A00831203138700D030F0000730F1000A1223
:100D6A008A113D260A128A11023083120313870060
:100D7A00D030F0000730F1000A128A113D268312A2
:100D8A00031387010800D030F0000730F1000A127F
:100D9A008A113D260A128A113830F5000030F60011
:100DAA000A128A1176260A128A110830F5000030D2
:100DBA00F6000A128A1176260A128A110130F50003
:100DCA000030F6000A128A1176260A128A110630B3
:100DDA00F5000030F6000A128A1176260A128A11E4
:100DEA000C30F5000030F6000A128A117626080047
:100DFA00FB00831203130808F700F8017708F900CB
:100E0A007808FA00712F30300A128A119E260A12C7
:100E1A008A11A52F31300A128A119E260A128A11C6
:100E2A00A52F32300A128A119E260A128A11A52F7C
:100E3A0033300A128A119E260A128A11A52F3430DB
:100E4A000A128A119E260A128A11A52F35300A1211
:100E5A008A119E260A128A11A52F36300A128A1181
:100E6A009E260A128A11A52F37300A128A119E2647
:100E7A000A128A11A52F38300A128A119E260A12DE
:100E8A008A11A52F39300A128A119E260A128A114E
:100E9A00A52F2B300A128A119E260A128A11A52F13
:100EAA002D300A128A119E260A128A11A52F2A307B
:100EBA000A128A119E260A128A11A52F2F300A12A7
:100ECA008A119E260A128A11A52F3D300A128A110A
:100EDA009E260A128A11A52F7A08003A0319762F3C
:100EEA00A52F7908103A0319392F013A0319402F0F
:100EFA00033A0319472F013A0319632F073A0319D3
:100F0A00242F013A03192B2F033A0319322F013ADE
:100F1A0003195C2F0F3A03190F2F013A0319162FE1
:100F2A00033A03191D2F013A0319552F063A0319DB
:100F3A00082F033A03196A2F013A03194E2FA52FD6
:100F4A007B08840001308007840A0318800A7B0822
:100F5A0084000008F700840A0008F80014307706B5
:100F6A007804031DBA2FC030D52F7B0884000008EF
:100F7A00F700840A0008F800283077067804031D71
:100F8A00C82F9430D52F7B0884000008F700840A04
:100F9A000008F8003C3077067804031DDD2FD430B2
:100FAA00F5000030F6000A128A1176260A128A1112
:100FBA007B0884000008F700840A0008F800780813
:100FCA00803AFF0080307F02031DED2F51307702F7
:100FDA00031C08000130F5000030F6000A128A11DD
:100FEA0076267B0884008001840A80010800830138
:060FFA000A128A11522EBA
:02400E0071FF40
:00000001FF
