:060000000A128A11FC2F18
:100B6600F301F4017408803AF2007108803A7202C7
:100B7600031DBF2D70087302031808000130F30728
:100B86000318F40A0030F407B52D75088312031311
:100B96008600E830F0000330F1000A128A11B3250E
:100BA6000A128A110430831203138700E830F0001A
:100BB6000330F1000A128A11B3250A128A11831230
:100BC60003138701E830F0000330F1000A128A119E
:100BD600B3258312031387010800750883120313D4
:100BE6008600E830F0000330F1000A128A11B325BE
:100BF6000A128A110630831203138700E830F000C8
:100C06000330F1000A128A11B3250A128A11023042
:100C1600831203138700E830F0000330F1000A1254
:100C26008A11B3258312031387010800E830F00008
:100C36000330F1000A128A11B3250A128A113830DC
:100C4600F5000030F6000A128A11C8250A128A1128
:100C56000830F5000030F6000A128A11C8250A127B
:100C66008A110130F5000030F6000A128A11C825F3
:100C76000A128A110630F5000030F6000A128A11AF
:100C8600C8250A128A110C30F5000030F6000A1247
:100C96008A11C8250800F601F31F582EF209F30938
:100CA600F20A0319F30AF601F60AF11F5F2EF0099C
:100CB600F109F00A0319F10A7108700403198C2E60
:100CC600F501F50AF11B732E01300310F00DF10D3D
:100CD600FF3E031D682E0130F4007408F507652EEB
:100CE60071087302031D792E70087202031C812E8F
:100CF6007008F2027108031CF303F30201300310BB
:100D0600F10CF00CFF3E031D822E0130F502031D8F
:100D1600732E76080319942EF209F309F20A0319C1
:100D2600F30A7308F101F1077208F001F0070800F1
:100D360083120313A701A8018316031386018701F3
:100D4600FF3088000A128A1119260A128A118312A4
:100D56000313081EAA2E27300A128A1116270A1212
:100D66008A11780883120313A601A6077708A5013E
:100D7600A507260825040319AA2E0130A70703187C
:100D8600A80A0030A8071430F0000030F100280847
:100D9600F301F3072708F201F2070A128A114E2619
:100DA6000A128A1171087004031DFB2E1430831277
:100DB600031327062804031DE22EC030F32E283025
:100DC6008312031327062804031DEB2E9430F32EFB
:100DD6003C308312031327062804031DFB2ED43050
:100DE600F5000030F6000A128A11C8250A128A1187
:100DF600831203132808803AFF0080307F02031D08
:100E0600062F51302702031CAA2E0130F5000030B0
:100E1600F6000A128A11C8250A128A1183120313D0
:100E2600A701A801AA2E013083120313A3000030E4
:100E3600A4000808F900FA017908A1007A08A200BE
:100E4600BF2F3030F5000030F6000A128A11F02567
:100E56000A128A11F32F3130F5000030F6000A121B
:100E66008A11F0250A128A11F32F3230F50000306C
:100E7600F6000A128A11F0250A128A11F32F33306E
:100E8600F5000030F6000A128A11F0250A128A11BE
:100E9600F32F3430F5000030F6000A128A11F025DF
:100EA6000A128A11F32F3530F5000030F6000A12C7
:100EB6008A11F0250A128A11F32F3630F500003018
:100EC600F6000A128A11F0250A128A11F32F37301A
:100ED600F5000030F6000A128A11F0250A128A116E
:100EE600F32F3830F5000030F6000A128A11F0258B
:100EF6000A128A11F32F3930F5000030F6000A1273
:100F06008A11F0250A128A11F32F2B30F5000030D2
:100F1600F6000A128A11F0250A128A11F32F2D30D3
:100F2600F5000030F6000A128A11F0250A128A111D
:100F3600F32F2A30F5000030F6000A128A11F02548
:100F46000A128A11F32F2F30F5000030F6000A122C
:100F56008A11F0250A128A11F32F3D30F500003070
:100F6600F6000A128A11F0250A128A11F32F83124B
:100F76000313A301A401F32F2208003A0319C42F77
:100F8600BA2F2108103A03196A2F013A0319742F50
:100F9600033A03197E2F013A0319A62F073A0319BC
:100FA6004C2F013A0319562F033A0319602F013AC1
:100FB60003199C2F0F3A03192E2F013A0319382FC4
:100FC600033A0319422F013A0319922F063A0319DD
:100FD600242F033A0319B02F013A0319882FBA2F89
:100FE600831203132408F801F8072308F701F7070B
:0A0FF600080083010A128A119B2EE5
:02400E0071FF40
:00000001FF
