:060000000A128A11122809
:10000800FE00030EF0000408F1000A08F200831253
:1000180003137F08F3000A128A1133280A128A117F
:10002800152883010A128A1119280630831603132A
:100038009F008501831203130510831603138C1484
:10004800831203138C100B178B17013092007D302D
:1000580083160313920083120313121532288B138D
:100068008C1C39288C10013085068B177308FF000B
:1000780072088A0071088400700E8300FE0E7E0EDE
:0200880009006D
:02400E0071FF40
:00000001FF
