:060000000A128A11EE2F26
:100DEC007E088A007F088200F6260A128A1180008B
:100DFC00840A04087D0603190034FF0A0319FE0A4D
:100E0C00FA2E8312031308080F39F0007008F10052
:100E1C00192FF9010800F901F90A0800FF30F00058
:100E2C007008F90008007108003A03190F2F013AF5
:100E3C000319112F142F080059346F3475342034D2
:100E4C0070347234653473347334653464342034E0
:100E5C0031342E3420340A34003459346F34753420
:100E6C0020347034723465347334733465346434C0
:100E7C00203432342E3420340A34003483160313D5
:100E8C00870183120313870119308316031399000A
:100E9C0018128312031398178316031318131815BB
:100EAC00981683120313081E572F0A128A1107274C
:100EBC000A128A1179080A128A117A270A128A11DF
:100ECC00F601F7017708803AFF00A7307F02031D77
:100EDC00712F103076020318572F0130F6070318C4
:100EEC00F70A0030F707682F83160313981C7A2F24
:100EFC00F908031DAC2FF201F3010030730211301D
:100F0C00031972020318A32F7208203E8400831366
:100F1C00000883120313990083160313981C922F55
:100F2C000130F2070318F30A0030F30700307302A4
:100F3C00113003197202031C8A2F0D308312031314
:100F4C009900831603139818DA2FA72F7908013A02
:100F5C00031D0800F401F50100307502113003196E
:100F6C0074020318D22F7408313E840083130008D6
:100F7C0083120313990083160313981CC12F01309D
:100F8C00F4070318F50A0030F5070030750211302C
:100F9C0003197402031CB92F0D308312031399002B
:100FAC0083160313981CD62FF001F1017108803AB7
:100FBC00FF00A7307F02031DE52F103070020318CD
:100FCC0008000130F0070318F10A0030F107DC2F9C
:100FDC00F801F90183134230FD000730FE00223086
:100FEC00FF00203084000A128A11FA2683010A12AB
:040FFC008A11442FE3
:02400E0071FF40
:00000001FF
