:060000000A128A11FC2F18
:100E7C00F201F30171087302031D462F7008720210
:100E8C00031808000130F2070318F30A0030F307C7
:100E9C00402F6430F0000030F1000A128A113E2716
:100EAC000A128A1138300A128A1175270A128A110D
:100EBC0008300A128A1175270A128A1101300A1297
:100ECC008A1175270A128A1106300A128A1175279F
:100EDC000A128A110C300A128A1175270800F400C4
:100EEC0074088312031386006430F0000030F100A4
:100EFC000A128A113E270A128A1104308312031334
:100F0C0087006430F0000030F1000A128A113E278D
:100F1C000A128A118312031387016430F000003027
:100F2C00F1000A128A113E2783120313870108006D
:100F3C00F40074088312031386006430F000003050
:100F4C00F1000A128A113E270A128A110630831206
:100F5C00031387006430F0000030F1000A128A118C
:100F6C003E270A128A110230831203138700643061
:100F7C00F0000030F1000A128A113E27831203138D
:100F8C008701080083160313860187010A128A1150
:100F9C004F270A128A1181300A128A1175270A12F8
:100FAC008A1148300A128A119E270A128A1145307A
:100FBC000A128A119E270A128A114C300A128A11BF
:100FCC009E270A128A114C300A128A119E270A1285
:100FDC008A114F300A128A119E270A128A11213067
:100FEC000A128A119E270A128A11D12F83010A1222
:040FFC008A11C82F5F
:02400E0071FF40
:00000001FF
